:020000040800F2
:10000000E00700203102000899170008CF1200080D
:100010009517000833070008E723000800000000D8
:10002000000000000000000000000000C91C0008E3
:10003000A510000800000000D1180008211E0008CB
:100040004B0200084B0200084B0200084B0200085C
:100050004B0200084B0200084B0200084B0200084C
:100060004B020008F51000084B0200084B02000884
:100070004B0200084B0200084B0200084B0200082C
:100080004B0200084B0200084B0200084B0200081C
:10009000390700084B0200084B0200081111000844
:1000A0004B0200084B0200084B0200084B020008FC
:1000B0004B0200084B0200084B0200084B020008EC
:1000C0004B0200084B0200084B0200084B020008DC
:1000D0004B0200084D2100084B0200084B020008AB
:1000E000A91000084B0200084B0200084B02000850
:1000F0004B0200084B0200084B0200084B020008AC
:100100004B0200084B0200088D1E00084B0200083D
:100110004B0200084B0200084B0200085D1F00085C
:100120004B0200084B0200084B0200084B0200087B
:100130004B0200084B0200084B0200084B0200086B
:100140004B0200084B0200084B0200084B0200085B
:100150004B0200084B0200084B0200084B0200084B
:100160004B0200084B0200084B0200084B0200083B
:100170004B0200084B0200084B0200084B0200082B
:100180004B0200084B02000800F002F800F041F8B2
:100190000AA090E8000C82448344AAF10107DA45E2
:1001A00001D100F036F8AFF2090EBAE80F0013F0F3
:1001B000010F18BFFB1A43F001031847FC7300003E
:1001C0001C740000103A24BF78C878C1FAD85207CE
:1001D00024BF30C830C144BF04680C6070470000C1
:1001E0000023002400250026103A28BF78C1FBD840
:1001F000520728BF30C148BF0B607047642900F028
:100200009D80002070471FB506F005FB1FBD10B58F
:1002100010BD00F063FA1146FFF7F5FF04F042FA53
:1002200000F081FA03B4FFF7F2FF03BC02F0BCFD5B
:100230000948804709480047FEE7FEE7FEE7FEE77A
:10024000FEE7FEE7FEE7FEE7FEE7FEE704480549B6
:10025000054A064B70470000251E0008890100086A
:10026000E0010020E0070020E0030020E003002080
:10027000704710B54C1084EA530404D54042C1F1D4
:10028000000138BF491E1B4204D55242C3F100038E
:1002900038BF5B1E00F0C6F814F0804F04D0404217
:1002A000C1F1000138BF491E14F0004F04D0524282
:1002B000C3F1000338BF5B1E10BD00000FB404493A
:1002C00010B503AA029800F089F910BC5DF814FB80
:1002D000300000202DE9F0410E4604460020206247
:1002E0002046E168884730B3252805D0D4E90121AC
:1002F0009047206A401CF2E7E168204600278847C3
:10030000050018D0A5F14100192802D820354FF476
:1003100000673246294620462760FFF76FFF40B14D
:10032000012804D0F61D26F007060836D8E7361D4A
:10033000D6E72846DAE7206ABDE8F0812DE9F041EA
:100340000646002410687529314616A510D0AFF373
:100350000080002802DA404213A507E031688A07CE
:1003600001D512A502E0490704D511A5012401E039
:10037000AFF3008000210A2206F1240709E0B0FB58
:10038000F2FCB0FBF2F302FB1C003030785418464C
:10039000491C0028F3D123462A463046BDE8F041E7
:1003A00000F0C2B8000000002D0000002B0000008B
:1003B0002000000040EA010310B59B070FD1042A7A
:1003C0000DD310C808C9121F9C42F8D020BA19BA20
:1003D000884201D9012010BD4FF0FF3010BD1AB185
:1003E000D30703D0521C07E0002010BD10F8013BDA
:1003F00011F8014B1B1B07D110F8013B11F8014B01
:100400001B1B01D1921EF1D1184610BD02F0FF0353
:1004100043EA032242EA024200F0F4B87047704710
:100420007047704753EA020C00F069802DE9F04BE9
:100430004FF00006002B1FBFB3FA83F503FA05F453
:1004400024FA05F65E4012BF1643B2FA82F502FAAC
:1004500005F4C5F120051EBF22FA05FC44EA0C0490
:10046000203556EA044C4FEA144418BF641C4FF080
:1004700000084FF00009904271EB030C39D30029BA
:1004800019BFB1FA81F701FA07F6B0FA80F700FA5E
:1004900007F6C7F120071EBF20FA07FC46EA0C0644
:1004A0002037B6FBF4FCA7EB0507103F07F01F0B46
:1004B000CBF120060CFA0BFB2CFA06F644BFB34630
:1004C0000026202FA4BF5E464FF0000B5BEA060C0F
:1004D00008BF4FF0010B19EB0B09ABFB027C48EB9B
:1004E0000608C01B06FB02CC0BFB03CC71EB0C0116
:1004F000C1E70B46024641464846BDE8F08B13B5BE
:100500004FF000004FF00001AFF30080BDE81C4049
:10051000704710B500F096F8006810BD10B504469D
:1005200000F090F8046010BD2DE9F0470D469946A3
:100530009246044600F124080168880604D5E06963
:1005400021F01001216000E00120A84201DD471BDD
:1005500000E00027A1697A1902EB0900081AA061DE
:100560002078C00602D42046AFF30080002608E0C1
:10057000D4E901211AF806009047206A401C761C35
:1005800020624E45F4DB2078C0060AD52046AFF342
:10059000008006E0D4E9012130209047206A401C09
:1005A0002062381EA7F10107F4DC07E0D4E901213D
:1005B00018F805009047206A401C2062281EA5F10B
:1005C0000105F3DC2046AFF300802078000602D559
:1005D0000220BDE8F0870120FBE70000074B70B563
:1005E0000D467B4400F037F80446284600F046F8F4
:1005F00010B14FF0FF3070BD204670BDD337000002
:100600004FF000020429C0F0128010F0030C00F03B
:100610003B80CCF1040CBCF1020F18BF00F8012B99
:10062000A8BF20F8022BA1EB0C0100F02DB85FEA67
:10063000C17C24BF00F8012B00F8012B48BF00F853
:10064000012B7047004870477C01002001694A1C5B
:1006500002610878704700B58FB0CDE90131002103
:10066000059105497944CDE9031011466846FFF725
:1006700031FE0FB000BD0000E5FFFFFF007B00F082
:10068000800070474FF0000200B51346944696462E
:10069000203922BFA0E80C50A0E80C50B1F1200195
:1006A000BFF4F7AF090728BFA0E80C5048BF0CC043
:1006B0005DF804EB890028BF40F8042B08BF7047A1
:1006C00048BF20F8022B11F0804F18BF00F8012B13
:1006D00070470000004870477C0100207546FFF716
:1006E000F9FFAE4605006946534620F007008546EF
:1006F00018B020B5FFF7AAFDBDE820404FF0000676
:100700004FF000074FF000084FF0000B21F00701F9
:10071000AC46ACE8C009ACE8C009ACE8C009ACE83C
:10072000C0098D4670470446AFF300802046FFF7AE
:1007300079FD00BFFEE7000000B585B00221224828
:1007400000F01EF988B302211F4800F041F86A4604
:1007500000211D4800F037FA0098A0F2012030B1C6
:1007600001280ED0022816D0032829D11EE09DF8BA
:100770000E109DF80D0041EA002000B213490880D8
:100780001EE09DF80E109DF80D0041EA002000B219
:100790000E49488014E09DF80E109DF80D0041EAC6
:1007A000002000B2094988800AE00AE09DF80E1096
:1007B0009DF80D0041EA002000B20449C88000BF46
:1007C00000BF05B000BD0000006400403A000020FA
:1007D000B1F5007F3AD00FDC202928D006DC0129B2
:1007E0001CD004291DD0082940D11DE0402921D06A
:1007F000B1F5807F3AD126E0B1F5004F31D006DC6B
:10080000B1F5806F25D0B1F5006F2FD124E0B1F59F
:10081000803F12D0B1F5003F28D111E0154A826027
:1008200025E00822C26022E01022C2601FE00822F8
:1008300002611CE01022026119E00822426016E009
:100840001022426013E00422426010E00422426061
:100850000DE0042242600AE000228261042242602C
:1008600005E0002282610422426000E000BF00BF78
:10087000704700000101010010B50021837A0122B8
:1008800002FA03F13D4A126842F001023B4B1A6042
:100890003A4A1C3212688A43384B1C331A60027B76
:1008A000CAB9364A0C3212688A43344B0C331A6088
:1008B0004288C38842EA0343304A4032847A42F88D
:1008C00034300288838842EA03432C4A4032847AD7
:1008D00002EBC4025360027B012A19D1274A0C3271
:1008E00012680A43254B0C331A604288038842EA97
:1008F0000343224A4032847A42F83430C2888388E3
:1009000042EA03431D4A4032847A02EBC402536038
:10091000C27A3AB9194A121D12688A43174B1B1D35
:100920001A6006E0154A121D12680A43134B1B1D7C
:100930001A60028932B9114A143212688A430F4B85
:1009400014331A600289012A06D10C4A1432126843
:100950000A430A4B14331A60427B012A06D1074A24
:100960001C3212680A43054B1C331A60034A126892
:1009700022F00102014B1A6010BD00000066004029
:1009800070B504460D46002660692840002871D0E5
:10099000B5F5807F5CD010DC082D35D006DC012D4C
:1009A00020D0022D24D0042D72D127E0102D31D07B
:1009B000202D35D0402D6BD138E0B5F5004F60D0FB
:1009C00009DCB5F5007F49D0B5F5806F4CD0B5F5A1
:1009D000006F5DD14FE0B5F5803F2DD0B5F5003FFC
:1009E00056D12FE0A0682D4900F048FA064651E0A4
:1009F000E068032100F042FA06464BE0E068082177
:100A000000F03CFA064645E0E068102100F036FAB6
:100A100006463FE02069032100F030FA064639E03F
:100A20002069082100F02AFA064633E020691021E7
:100A300000F024FA06462DE06068082100F01EFA56
:100A4000064627E06068102100F018FA064621E00B
:100A5000A069012100F012FA06461BE0A0690221FC
:100A600000F00CFA064615E0A069042100F006FA31
:100A700006460FE00FE0A069702100F0FFF906467E
:100A800008E06068042100F0F9F9064602E0FFE79B
:100A9000002600BF00E00026304670BD01010100C5
:100AA0001AB143690B43436102E043698B434361DD
:100AB000704730B5024600200023146824F0020479
:100AC0001460146844F00104146000E05B1C546876
:100AD00004F001041CB94FF6FF74A342F6D1546828
:100AE00004F001040CB900206CE08C79012C04D1D5
:100AF000146844F08004146003E0146824F0800457
:100B00001460CC79012C04D1146844F040041460C2
:100B100003E0146824F0400414600C7A012C04D122
:100B2000146844F02004146003E0146824F02004E6
:100B300014604C7A012C04D1146844F01004146041
:100B400003E0146824F0100414608C7A012C04D1A2
:100B5000146844F00804146003E0146824F00804E6
:100B60001460CC7A012C04D1146844F0040414609D
:100B700003E0146824F0040414608C78A407CD7892
:100B800044EA05640D7944EA05444D7944EA055484
:100B90000D886D1E2C43D461146824F00104146088
:100BA000002300E05B1C546804F001041CB14FF604
:100BB000FF74A342F6D1546804F001040CB1002084
:100BC00000E0012030BD10B500F5D87303EB011330
:100BD0001B6803F004031372137A53B900F5D8733A
:100BE00003EB01131B6840F2FF7404EA53531360D4
:100BF00009E000F5D87303EB01131B686FF0604444
:100C000004EAD303536000F5D87303EB01131B68A8
:100C100003F00203537200F5D87303EB01135B6812
:100C200003F00F03937200F5D87303EB01135B68B5
:100C30001B0AD37400F5D87303EB01139B68D372BE
:100C400000F5D87303EB01139B681C0A147300F5BD
:100C5000D87303EB01139B681C0C547300F5D87315
:100C600003EB01139B681B0E937300F5D87303EB22
:100C70000113DB68D37300F5D87303EB0113DB6852
:100C80001C0A147400F5D87303EB0113DB681C0C09
:100C9000547400F5D87303EB0113DB681B0E9374D7
:100CA00021B9C36843F02003C36003E0036943F044
:100CB0002003036110BD10B502460020936803F0C5
:100CC0008063B3F1806F00D110E0936803F000639C
:100CD000B3F1006F01D1012008E0936803F0805365
:100CE000B3F1805F01D1022000E00420042874D019
:100CF00002F5C07303EB00131B6803F0010402F557
:100D0000C07303EB00131C600B7A7BB94B7A0C8821
:100D100043EA445302F5C07404EB001424682343EF
:100D200002F5C07404EB0014236010E00B7A4C68E9
:100D300043EAC4034C7A234302F5C07404EB001465
:100D40002468234302F5C07404EB001423608B7AFB
:100D500003F00F038B7202F5C07303EB00135B68A3
:100D600023F00F0402F5C07303EB00135C6002F57F
:100D7000C07303EB00135B688C7A234302F5C074E5
:100D800004EB001463608B7B1C064B7B44EA03443A
:100D90000B7B44EA0323CC7A234302F5C07404EBB3
:100DA0000014A3608B7C1C064B7C44EA03440B7C40
:100DB00044EA0323CC7B234302F5C07404EB001404
:100DC000E36002F5C07303EB00131B6843F00104FA
:100DD00002F5C07303EB00131C6010BD10B5024692
:100DE000002321B1012907D002290FD109E0906821
:100DF0001D4C00EA04030BE090681C4C00EA04035D
:100E000006E090681A4C00EA040301E0002300BFEA
:100E100000BF184C181BA34216D007DC83B16FF03B
:100E20008060184470B1022818D111E0B0F5007F3D
:100E300010D0114C204448B1B0F5003F0ED10BE06A
:100E400002230DE000230BE0002309E0002307E06C
:100E5000012305E0012303E0012301E0002300BF9B
:100E600000BFD8B210BD000003000004000300085A
:100E700000000310000100080001FFF702460020F7
:100E800002EA01030BB1012000E0002070470000DE
:100E900038B5002000906B4601227521682003F0D0
:100EA00009FB2DA0FFF70AFA9DF80000682810D072
:100EB00000BFBFF34F8F3148006800F4E060304955
:100EC0000843001D2D490860BFF34F8F00BF00BFCE
:100ED000FEE703F06DFD00283CD1782004F072FBA2
:100EE00010B91DA0FFF7EAF9782003F047FC10B90C
:100EF00024A0FFF7E3F9C82004F016FB10B92BA0DB
:100F0000FFF7DCF902F060FA10B932A0FFF7D6F96A
:100F10003D4803F08BFB044602F0B0FC10B93BA047
:100F2000FFF7CCF940F2731002F0F6F810B941A0C7
:100F3000FFF7C4F9C82002F0D1FB10B947A0FFF7B2
:100F4000BDF904F0E7FC012004F0EAF910B94CA067
:100F5000FFF7B4F938BD00006D70755F7365745F9D
:100F600073656E736F7220636F6D706C657465204E
:100F70002E2E2E2E2E2E0D0A000000000CED00E06D
:100F80000000FA056D70755F636F6E666967757254
:100F9000655F6669666F20636F6D706C6574652050
:100FA0002E2E2E2E2E2E0D0A000000006D70755F65
:100FB0007365745F73616D706C655F7261746520D9
:100FC000636F6D706C657465202E2E2E2E2E2E0D87
:100FD0000A000000646D705F6C6F61645F6D6F7418
:100FE000696F6E5F6472697665725F6669726D774C
:100FF00061726520636F6D706C657465202E2E2E96
:101000002E2E2E0D0A0000009C000020646D705FE3
:101010007365745F6F7269656E746174696F6E2059
:10102000636F6D706C657465202E2E2E2E2E2E0D26
:101030000A000000646D705F656E61626C655F66DA
:1010400065617475726520636F6D706C6574652081
:101050002E2E2E2E2E2E0D0A00000000646D705FC5
:101060007365745F6669666F5F7261746520636F34
:101070006D706C657465202E2E2E2E2E2E0D0A009E
:101080006D70755F7365745F646D705F73746174A8
:101090006520636F6D706C657465202E2E2E2E2E6C
:1010A0002E0D0A007047000010B50E480068B8B950
:1010B0004FF400400C49086000F042F80B480078FB
:1010C00001280BD10A480078401CC0B208490870BA
:1010D000042803D1002008700449087000F09EFC29
:1010E00010BD00003C824042143C0140360000200C
:1010F0003700002010B5082000F028F828B10320A0
:1011000002490870082000F01BF810BD38000020CC
:1011100010B5802000F01AF828B1022007490870A5
:10112000802000F00DF8202000F010F828B10120F8
:1011300002490870202000F003F810BD380000209C
:101140000149086070470000143C0140014600203E
:10115000034A12680A400AB1012000E000207047EB
:10116000143C0140002123498279002A3AD00A46E2
:10117000126803689A430B461A600A1D12680368D6
:101180009A430B1D1A60027911440A6803681A43D6
:101190000A60184A0832126803689A43154B0833EC
:1011A0001A601A1D126803689A43124B0C331A60B6
:1011B0004279102A0ED11A1F126803681A430D4B88
:1011C00008331A601A1D126803681A43094B0C335E
:1011D0001A600DE00749427911440A6803681A430E
:1011E0000A6005E0027911440A6803689A430A60BC
:1011F00070470000003C0140F0B50A460021002382
:10120000002400BF3DE0012505FA01F3156805EA59
:1012100003049C4234D105684F000326BE40B54309
:10122000056015794E00B5400668354305601579AF
:10123000012D02D01579022D16D185684F000326A5
:10124000BE40B543856055794E00B540866835434C
:101250008560456801268E40B543456045689679AE
:101260008E40B6B235434560C5684F000326BE4088
:10127000B543C560D5794E00B540C6683543C560F5
:10128000491C1029BFD3F0BDF0B5002300244D0741
:10129000ED0E02FA05F3CE1000F1200555F82650A8
:1012A0004E07F70E0F26BE40B543CF1000F12006C3
:1012B00046F82750CE1000F1200555F8265045EA93
:1012C0000304CE1000F1200545F82640F0BD00BF14
:1012D000FEE770B505460E46002400F0F7F82846F4
:1012E00000F0C2F8641C00F049F9304600F0BCF888
:1012F000641C00F043F900F0E9F8691CC8B200F082
:10130000B3F8641C00F03AF9002000F077F80446C6
:1013100000F010F9204670BD10B500200E4908609D
:101320000E48006820F440000C4908600846006838
:1013300040F48000086000200949C1F8AC02012097
:1013400001F080FE01200449086001F07BFE0020CE
:101350000349C1F8A80210BDA8824042000402401F
:10136000008040421CB50121022000F0B3FA4FF486
:101370004060009001208DF8040000208DF80600E8
:1013800003208DF8050001208DF807006946054807
:10139000FFF732FF0120044908600449C1F8AC029C
:1013A0001CBD000000040240A88240420080404270
:1013B00010B500200E4908600E48006820F4400077
:1013C0000C4908600846006840F48000086001206D
:1013D0000949C1F8AC0201F035FE0120044908605A
:1013E00001F030FE00200449C1F8A80210BD000041
:1013F000A8824042000402400080404270B5054689
:1014000000241648006820F440001449086008468B
:1014100000680860002616E00020114908600220DC
:1014200001F010FE01200F49C1F8A8026006040E69
:101430000B487C38006808B1601CC4B2022001F07F
:1014400001FE701CC6B2082EE6DB15B1FFF764FF83
:1014500001E0FFF7ADFF204670BD00000004024030
:10146000A88240420080404270B50446144800689B
:1014700020F44000124908600846006840F48000EB
:10148000086000200F490860002516E0E0090D49BA
:10149000091D08606006040E012001F0D3FD012043
:1014A0000949C1F8A80201F0CDFD002005490860F6
:1014B000012001F0C7FD681CC5B2082DE6DB70BD38
:1014C00000040240A88240420080404210B5164805
:1014D000006820F44000144908600846006840F4A1
:1014E000800008600120114908601148D0F82C02E2
:1014F00008B9002010BD01200C49091F086001F047
:10150000A1FD00200A49C1F8AC02084880380068F3
:1015100008B10020EEE7012001F094FD002003490E
:10152000091F08600120E5E700040240AC82404248
:101530000080404210B50E48006820F440000C497D
:1015400008600846006840F48000086000200949EF
:1015500008600949C1F8AC02012001F073FD0120C7
:10156000044908600449C1F8AC0201F06BFD10BDEC
:1015700000040240A88240420080404210B500248E
:101580001448006820F440001249086008460068CA
:10159000086001201049086001F054FD01200F4946
:1015A000C1F8A80201F04EFD0AE0601CC4B2322C62
:1015B00003DDFFF7BFFF002010BD012001F042FD59
:1015C0000548803800680028EFD10349091F0860EA
:1015D0000120F1E700040240AC824042008040421A
:1015E00070B505460E46144631462846FFF771FE93
:1015F0002070012070BDF8B506460F4614461D4602
:101600006A4639463046FFF7EBFF2DB10120A04076
:101610009DF80010084305E00120A0409DF800104F
:1016200021EA0000C0B200909DF800203946304603
:1016300000F036F8F8BD2DE9F84307468846144611
:101640001D46089E6A4641463846FFF7C9FF28B343
:10165000601CFF2101FA00F0C4F108012944491E71
:10166000FF220A41104300F0FF09C5F1080006FA05
:1016700000F0C6B2C4F1070006419DF8000000EA80
:10168000090000909DF80000304300909DF8002074
:101690004146384600F004F8BDE8F8830020FBE737
:1016A00037B504460D4602AB01222946204600F01C
:1016B00001F83EBD2DE9F04180460D4616461F4615
:1016C0000024FFF703FF4046FFF7CEFEFFF756FF6B
:1016D0002846FFF7C9FEFFF751FF00BF06E0385D5F
:1016E000FFF7C2FEFFF74AFF601CC4B2B442F6DB4C
:1016F000FFF720FF0120BDE8F08110B5022000F0C7
:1017000010F8032000F021F8002000F014F8002069
:1017100000F037F8002000F02BF8002000F01FF850
:1017200010BD38B50446032302226B21D02000945B
:10173000FFF781FF38BD38B50446022304221C217F
:10174000D0200094FFF777FF38BD38B50446022358
:1017500004221B21D0200094FFF76DFF38BD10B587
:101760000446234601223721D020FFF744FF10BD55
:1017700010B50446234605226A21D020FFF73BFF1F
:1017800010BD10B50446234606226B21D020FFF77A
:1017900032FF10BD00BFFEE77047000070B50021AA
:1017A00000230F22C4781CB3174C246804F4E064AF
:1017B000C4F5E064C4F30721C1F10404E3B20A41B3
:1017C00044789C40E1B28478144021430C07210EF8
:1017D0000E4C05786155047804F01F050124AC40D7
:1017E00005786D11AD0005F1E025C5F8004109E06F
:1017F000047804F01F050124AC40054D06787611ED
:1018000045F8264070BD00000CED00E000E400E06B
:1018100080E100E002490143024A11607047000084
:101820000000FA050CED00E0818BC28B891A09B229
:101830000180B0F92010B0F9182091420BDBB0F90B
:1018400000104268002901DD002101E0B0F900101C
:101850001144416016E0B0F92010B0F91A2091420D
:101860000BDCB0F900104268002901DA002101E028
:10187000B0F900101144416004E0B0F90020416863
:1018800011444160D0ED020AB0F9001000EE101AC8
:10189000B8EEC00A20EE800A90ED031AD0ED010ADE
:1018A000F8EEE00A01EE200AB0F90220891A00EEF3
:1018B000901AF8EEE00A90ED041A01EE200ABDEE4F
:1018C000C00A10EE101A09B20184018841807047E5
:1018D0007047000029B1064A12680243044B1A609F
:1018E00004E0034A12688243014B1A60704700000B
:1018F0003038024029B1064A12680243044B1A608C
:1019000004E0034A12688243014B1A6070470000EA
:101910004038024029B1064A12680243044B1A605B
:1019200004E0034A12688243014B1A6070470000CA
:1019300044380240F0B50021002200240225002690
:101940000223324F3F6807F00C0121B1042905D072
:10195000082937D105E02E4F076036E02D4F07608C
:1019600033E02A4F3F1F3F68C7F38056274F3F1F82
:101970003F6807F03F036EB1264FB7FBF3F7DFF880
:101980008CC0ACF1040CDCF800C0CCF3881C07FB65
:101990000CF40CE01E4FB7FBF3F7DFF870C0ACF1AE
:1019A000040CDCF800C0CCF3881C07FB0CF4174FC8
:1019B0003F1F3F68C7F301477F1C7D00B4FBF5F76D
:1019C000076002E0124F076000BF00BF0F4F3F6883
:1019D00007F0F0010909104F7A5C0768D7404760AB
:1019E0000A4F3F6807F4E051890A0B4F7A5C476859
:1019F000D7408760054F3F6807F46041490B064FA9
:101A00007A5C4768D740C760F0BD000008380240E4
:101A10000024F40000127A000400002000B52DED2F
:101A2000088B89B007A89A4908AB03AACDE9001032
:101A30009849994801F0D4FC9548008800F48070DA
:101A400000287DD09DED030AB8EEC00ADFED930AB1
:101A500080EE201A924880ED001A9DED040AB8EE3F
:101A6000C00ADFED8E0A80EE201A8E4880ED001A43
:101A70009DED050AB8EEC00ADFED880A80EE201A57
:101A8000894880ED001A9DED060AB8EEC00ADFED28
:101A9000830A80EE201A854880ED001A814890ED77
:101AA000000AF8EE000A20EE200A8048D0ED000A75
:101AB00020EE200A7A48D0ED000AB0EE001A60EE5F
:101AC000810A794890ED001A00EE810A10EE101A92
:101AD000084604F02FFE41EC1A0BB0EE4A0AF0EE75
:101AE0006A0A00F09DFCB0EE409AF0EE609A9FED1D
:101AF000700B53EC102B51EC190B04F05BFB41EC19
:101B0000180B04F025F96C490860664890ED000A4E
:101B1000F8EE000A20EE200AD0ED000A20EE200A9E
:101B20006148D0ED000AB0EE001A60EE810A90ED37
:101B3000001A00EEC10AF7EE000A30EE200A00E0BB
:101B4000A2E010EE101A084604F0F4FD41EC1A0B66
:101B5000554890ED000AF0EE000A20EE200A5348A6
:101B6000D0ED000A20EE200A4D48D0ED000AB0EE7C
:101B7000001A60EE810A4B4890ED001A00EE810ACF
:101B800010EE101A084604F0D5FD41EC1B0BB0EE28
:101B90004A1AF0EE6A1AB0EE4B0AF0EE6B0A00F049
:101BA0005BFFB0EE409AF0EE609A9FED410B53EC74
:101BB000102B51EC190B04F0FDFA41EC180B04F05A
:101BC000C7F83E490860364890ED000A20EE000A4A
:101BD0003448D0ED000A90ED001A00EE810A324838
:101BE000D0ED000A90ED001A00EEC10A2F48D0EDAA
:101BF000000A90ED001A00EEC10A10EE101A084615
:101C000004F098FD41EC1A0B264890ED000A264896
:101C1000D0ED000A20EE200A2148D0ED000A23482A
:101C200090ED001A00EE810AF0EE000A20EE200A84
:101C300010EE101A084604F07DFD41EC1B0BB0EECF
:101C40004A1AF0EE6A1AB0EE4B0AF0EE6B0A00F098
:101C500003FFB0EE409AF0EE609A9FED150B53EC47
:101C6000102B51EC190B04F0A5FA41EC180B04F001
:101C70006FF813490860084690ED000ADFED110A7D
:101C800020EE200A80ED000A09B0BDEC088B00BDF3
:101C900088000020820000207C0000200000804E90
:101CA0008C0000209000002094000020980000206C
:101CB0006666666666A64C40A8000020AC00002060
:101CC000B0000020000036437047000030B500220D
:101CD0008B071C0F0F2303FA04F20B4B8C1053F8E5
:101CE00024309343084C8D1044F8253023468C1043
:101CF00053F824308C07240F00FA04F42343024CD9
:101D00008D1044F8253030BD083801400CB5002056
:101D1000019000903448006840F4803032490860F7
:101D200000BF3148006800F4003000900198401C6A
:101D30000190009818B90198B0F5A04FF1D12A4848
:101D4000006800F4003010B10120009001E0002094
:101D500000900098012846D123484030006840F0A8
:101D600080502149403108602048006840F44040DC
:101D70001E4908601C48083000681B49083108608B
:101D80000846006840F4004008600846006840F4D7
:101D9000A05008601648091F0860081F006840F03E
:101DA0008070091F086000BF0F48006800F00070D5
:101DB0000028F9D040F205700E4908600A48083042
:101DC000006820F0030008490831086008460068F0
:101DD00040F00200086000BF03480830006800F0CF
:101DE0000C000828F8D10CBD0038024000700040FB
:101DF00008544007003C0240042808D14FF0E0217D
:101E0000096941F004014FF0E022116107E04FF051
:101E1000E021096921F004014FF0E02211617047CF
:101E20007047000010B51548006840F47000134971
:101E300008601348006840F0010011490860002064
:101E40000F49083108600E4800680E4908400C49E7
:101E500008600D48091D0860081F006820F48020F4
:101E6000091F0860002006490C310860FFF74EFF8B
:101E70004FF0006001498039086010BD88ED00E036
:101E800000380240FFFFF6FE1030002410B5304845
:101E9000007800F08000002854D101212D4800F086
:101EA0008DF8D0B12A48007800F04000A8B1284849
:101EB000007800F03F003F280AD12548007840F024
:101EC0008000234908704FF0FF302349086004E088
:101ED0001F480078401C1E49087002211D4800F070
:101EE0006DF878B31A48007800F0400078B11848CF
:101EF000007840F0800016490870164800F05BF842
:101F0000154908600021134800F072F81AE000201B
:101F10000F490870104908600D48007840F04000F3
:101F20000B49087000210B4800F039F800210948DE
:101F300000F0C7F80221074800F05AF801210548CF
:101F400000F02DF80321034800F026F810BD000032
:101F500019000020000C00401C00002010B50121D9
:101F6000054800F02BF830B1012004490870012128
:101F7000014800F011F810BD0014004018000020C6
:101F800021B1028842F08002028004E002884FF60C
:101F90007F731A4002807047CA430282704721B1A2
:101FA000028842F00102028004E002884FF6FE73CC
:101FB0001A40028070470146486B704730B50246B0
:101FC000002000230024158A05EA0103958905EA0B
:101FD000010413B10CB1012000E0002030BD1AB1A2
:101FE00083890B43838102E083898B43838170471C
:101FF0000A460021018C4FF6FD73194011430184FC
:102000007047000070B5002400220023058C4FF6B5
:10201000EF7635400584028C8388048B48F6FF7583
:102020002C404FF6FF452C400D884FF6FF7606EA10
:1020300005252C434FF6DF752A408D8906EA0515E4
:102040002A434D8806EA05152A43154DA84202D0B9
:10205000144DA8421DD14FF67F752A40CD894FF609
:10206000FF7606EA05152A434FF6BF752A408D888C
:1020700006EA05152A434FF6FF352B404FF2FF7550
:102080002B400D8A06EA85052B434D8A06EA850515
:102090002B43838004838D688563028470BD0000B8
:1020A00000000140000401400A460021018B4FF26C
:1020B000FF7319404FF6FF7303EA022319430183AC
:1020C000704741627047000000220288184B984216
:1020D0000ED0184B98420BD0B0F1804F08D0164B61
:1020E000984205D0154B984202D0154B984204D126
:1020F0004FF68F731A404B881A43124B984207D001
:10210000114B984204D04FF6FF431A400B891A43F3
:1021100002804B68C3620B880385054B984202D04E
:10212000044B984201D18B7A038601238382704746
:10213000000001400004014000040040000800408D
:10214000000C0040001000400014004010B5202199
:10215000414800F0A2F800287CD020213E4800F041
:1021600087F83D4800F036F93C4908703C48017852
:10217000394800F034F93A48007818B13848007806
:1021800001280DD135480078FF2805D13448007862
:10219000401C334908705DE000203149087059E067
:1021A0002F480078012811DD2D4800780C280DDA21
:1021B0002A4801782A480078801E2A4A22F81010FE
:1021C00027480078401C2649087043E024480078DE
:1021D0000C283FD100202249087020480078FE28B2
:1021E00038D1204840881F49097840EA012000B2D0
:1021F0001D4908801B480079000200B21949B1F955
:1022000006100843184948801648007A000200B2B8
:102210001449B1F90A100843134988801148007B1A
:10222000000200B20F49B1F90E1008430E49C880F0
:102230000C48007C000200B20A49B1F912100843B0
:10224000094908810948006808B9012000E0002018
:102250000649086010BD0000001001403400002055
:1022600035000020BC00002060010020B482404204
:1022700001F40072B2F5007F00D100BFCA430280B2
:10228000704721B1828942F40052828104E0828940
:102290004DF6FF731A408281704702460020B1F567
:1022A000007F00D100BF13880B400BB1012000E07C
:1022B00000207047F0B503460024002600250020CA
:1022C00040F66A17B94200D100BF1846C1F3421464
:1022D00001F01F06012707FA06F5012C01D10C3089
:1022E00004E0022C01D1103000E014301AB107686C
:1022F0002F43076002E00768AF430760F0BD0000AE
:102300002DE9FF4705460E460024A14600BFA04622
:10231000B08900B100BF2C8A24F44054F0880443F3
:102320002C82AC8941F20C608443B0883189084327
:10233000718908430443AC81AC8A24F44074B089A9
:102340000443AC826846FFF7F5FA2048854202D084
:102350001F48854202D1DDF80C9001E0DDF80890BD
:10236000A88900F4004040B109EBC90000EB091056
:1023700031684900B0FBF1F707E009EBC90000EB59
:10238000091031688900B0FBF1F76420B7FBF0F069
:1023900004012009642101FB1078A88900F40040A1
:1023A00040B1322000EBC800B0FBF1F000F00700B4
:1023B000044308E0322000EB08106421B0FBF1F088
:1023C00000F00F0004432C81BDE8FF87001001409E
:1023D0000014014001468888C0F308007047C1F32B
:1023E00008028280704700BFFEE703B401984100F5
:1023F000009850EAC12018BF04204A0D18BF40F0D1
:10240000010040F2FF72B2EB515F08BF40F00200E2
:10241000012808BF052002B070470000000000003E
:1024200070B5C1482DED020B2DED0E8B82B0119DC4
:1024300025F000449FEDBEDB9FEDBFEB84423EDB09
:10244000A4F140511098A1F17F6108430FD0BC481E
:10245000844202DC28D1109830B39DED100B02B0FD
:10246000BDEC0E8B02B0BDE8704000F069BC9DED84
:10247000100B53EC1D2B51EC100B03F09BFE9DED4C
:10248000100B41EC180B53EC1E2B51EC100B03F00E
:1024900091FE53EC182B03F08DFC41EC100B02B0B5
:1024A000BDEC0E8B02B070BD0120FEF737F802B014
:1024B000BDEC0E8B02B0BDE8704000F055BCA148E9
:1024C0009FEDA18B844256DA9DED100BB4F1795F3C
:1024D0000ADA51EC100BFFF788FF042808BF00F060
:1024E00053FC9DED100BDAE753EC102B51EC100B65
:1024F00003F060FE41EC190B95480621B0EE490A45
:10250000F0EE690A784400F09FFB53EC192B51EC74
:10251000100B03F04FFE41EC1A0B8E48B0EE490A47
:10252000F0EE690A0421784400F08EFB53EC192B7D
:1025300051EC100B03F03EFE53EC182B03F03AFC69
:1025400041EC100B51EC1A0B53EC102B03F0DAFC9E
:10255000CDE900019DED000B53EC102B9DED100B10
:1025600051EC100B03F026FE9DED101B53EC112BCC
:1025700003F020FCD2E09DED100B51EC100B01F0AC
:102580000FFC53EC182B03F013FF9FED730BCDE9F9
:10259000000153EC102B9DED000B51EC100B03F0E0
:1025A00009FE41EC190B6E480621B0EE490AF0EE27
:1025B000690A784400F048FB53EC192B51EC100BDE
:1025C00003F0F8FD41EC1B0B6648B0EE490AF0EE53
:1025D000690A0421784400F037FB53EC192B51ECC5
:1025E000100B03F0E7FD53EC182B03F0E3FB41EC79
:1025F0001C0B51EC190B03F0C9FA41EC180B5A48AB
:102600009FED5BABA04222DC53EC1C2B51EC1B0B6F
:1026100003F078FCCDE900019DED000B51EC180BA7
:1026200053EC102B03F0C6FD53EC182B03F0C2FB48
:1026300053EC1A2B03F0BEFD53EC1D2B03F090FF5F
:1026400053EC1E2B03F0B4FE41EC100B5FE08DED5C
:10265000008B002000909DED000B51EC180B53EC0B
:10266000102B03F0A7FB9DED000B41EC1E0B53EC70
:10267000102B51EC100B03F09DFD53EC192B03F0C4
:1026800097FE53EC1E2B03F03DFC41EC190B53EC71
:102690001C2B51EC1B0B03F035FC41EC1B0B53ECDA
:1026A0001A2B51EC190B03F085FD53EC1D2B03F095
:1026B0007FFE41EC190B53EC1A2B51EC180B03F075
:1026C00079FD53EC1B2B03F075FD53EC192B03F034
:1026D00047FF9DED000B41EC180B53EC1A2B51EC0E
:1026E000100B03F067FD9FED249B53EC192B03F0B7
:1026F0005FFE41EC100B51EC180B53EC102B03F068
:102700002FFF53EC192B03F053FE41EC100B002D5F
:102710003FF7C5AE51EC100B03F00EFB41EC100B74
:10272000BDE60000000000000000F03F00000000D7
:10273000075C143326A6913C182D4454FB21F93F25
:102740000000F07F0000E03F000000000000F03FCC
:10275000704F00007E4F0000000000000000E03FCE
:10276000C24E0000D04E00003333EF3F00000000A7
:102770000000000000000040182D4454FB21E93FF8
:1027800070B59B482DED020B2DED068B079D25F0B6
:102790000044A04218DC9748844202DC0AD1069823
:1027A00040B19DED060BBDEC068B02B0BDE870405C
:1027B00000F0C6BA002DCCBF9FED8F0B9FED900BA4
:1027C000BDEC068B02B070BD8F48A04215DD8F486E
:1027D000A042D8BF4FF0FF3458DD9DED060B51EC01
:1027E000100BFFF702FE042808BF00F0CDFA9DEDA4
:1027F000060BBDEC068B02B070BD9DED060B51ECD7
:10280000100B01F0CDFACDE9060181489FED828BD6
:10281000A0423CDD8248A0421FDD00249FED82AB38
:102820009DED060B53EC1A2B51EC100B03F0C2FA82
:102830009DED060B41EC190B53EC1A2B51EC100BD0
:1028400003F0B8FC53EC182B03F08AFE53EC192B61
:1028500003F058FBCDE9060149E09DED060B01248C
:1028600053EC182B51EC100B03F0A4FA9DED060B62
:1028700041EC190B53EC182B51EC100B03F070FECC
:1028800053EC192B03F03EFBCDE906012FE068481D
:10289000A0421FDD02249FED689B9DED060B53ECCB
:1028A000192B51EC100B03F085FC53EC182B03F0A3
:1028B00081FA9DED060B41EC180B53EC192B51ECF2
:1028C000100B03F04DFE53EC182B03F01BFBCDE96E
:1028D00006010CE09DED060B032453EC102B9FED3D
:1028E000580B51EC100B03F00DFBCDE906019DEDEB
:1028F000060B53EC102B51EC100B03F05BFC41EC7E
:10290000180B53EC182B03F055FC41EC190B4E48F7
:102910000621B0EE490AF0EE690A784400F094F915
:1029200053EC182B51EC100B03F044FC41EC180B4A
:102930004648B0EE490AF0EE690A0521784400F0F5
:1029400083F953EC192B51EC100B03F033FC41ECE1
:10295000100B51EC180B53EC102B002C0EDA03F07B
:1029600029FA9DED061B53EC112B03F023FC9DED82
:10297000061B53EC112B03F01BFD35E003F01AFA94
:102980009DED061B53EC112B03F014FC41EC100BD6
:102990002F48784400EBC40090ED001B51EC100B65
:1029A00053EC112B03F0DCFD9DED061B53EC112BBA
:1029B00003F0D6FD41EC100B2648784400EBC40030
:1029C00090ED001B51EC100B53EC112B03F0F0FCBD
:1029D00041EC100B002DA2BFBDEC068B02B070BD08
:1029E00051EC100B03F0A8F941EC100B01E70000CB
:1029F000000010440000F07F182D4454FB21F93FE3
:102A0000182D4454FB21F9BF0000DC3F0000203E9C
:102A10000000F33F00000000000000000000F03F55
:102A20000000E63F00000000000000000000004041
:102A30000080034000000000000000000000F83F9C
:102A4000000000000000F0BF124C0000C84B000066
:102A5000524B00000A4B000070B56B4E2DED040B7D
:102A60002DED028B82B0DDF81CC0DDE905235C4250
:102A70002CF000411C4341EAD474049D22F0004034
:102A8000B44205D86C422C4340EAD474B4420BD90A
:102A90009DED061B9DED040B02B0BDEC028B04B056
:102AA000BDE8704000F056B9ACF14054A4F17F6429
:102AB0001C430BD0022404EAAC7444EAD2740543EC
:102AC0009FED538B9FED542B07D015E09DED040B2C
:102AD00051EC100B00F0CAF942E0002C11BF012CA0
:102AE0009DED040B02B0BDEC028B04BF04B070BDC1
:102AF000022C38D0032C3BD00B439FED491B9FED9C
:102B00004A0B0AD0B14218D1B04209D121F080411C
:102B100020F08040079105900FE0002A15DA10E0C0
:102B2000434B7B44002C08BF93ED000B0DD0012CD0
:102B300010D0022C17D0032C1AD0B0421DD1002A7D
:102B400003DAB0EE410AF0EE610A02B0BDEC028B8E
:102B500004B070BD93ED000B51EC100B03F0ECF8DA
:102B600041EC100BF1E7B0EE480AF0EE680AECE732
:102B7000B0EE420AF0EE620AE7E7401A00153C2880
:102B8000C8BF8DED000B19DCBCF1000FBEBF10F10A
:102B90003C0F9FED290B8DED000B0FDB9DED060B20
:102BA00053EC102B9DED040B51EC100B03F0AAF924
:102BB00001F0F6F800F05AF9CDE90001002C08BF49
:102BC0009DED000BC1D0012C10D0022C9FED1C0BF1
:102BD00053EC102B9DED000B51EC100B0DD003F0BE
:102BE000BFFC53EC182B03F0BBFCB9E7019880F055
:102BF000004001909DED000BA7E703F0B1FC53EC02
:102C0000182B03F0D5FBABE70000F07F00000000BD
:102C1000182D4454FB210940182D4454FB2109C0B0
:102C2000182D4454FB21F9BF182D4454FB21F93FC2
:102C30003A4A000000000000000000000000000010
:102C4000075C143326A6A13C70B504462DED028B1B
:102C50004D1E00EBC500B0EE408AF0EE608A90EDAC
:102C6000000B35F0060017D053EC182B51EC100B6D
:102C700003F0A0FA41EC100B6D1E04EBC50090EDC3
:102C8000001B51EC100B53EC112B03F093F841ECAB
:102C9000100B35F00600E7D1022D36D0042D1CD0E4
:102CA000062D1CBFBDEC028B70BD53EC182B51ECF4
:102CB000100B03F07FFA94ED0A1B53EC112B03F079
:102CC00079F853EC182B03F075FA94ED081B53ECCC
:102CD000112B03F06FF841EC100B53EC182B51EC57
:102CE000100B03F067FA94ED061B53EC112B03F065
:102CF00061F853EC182B03F05DFA94ED040B53ECE0
:102D0000102B03F057F841EC100B53EC182B51EC3F
:102D1000100B03F04FFA94ED021B53EC112B03F050
:102D200049F853EC182B03F045FA94ED001B53ECD3
:102D3000112B03F03FF8BDEC028B41EC100B70BD82
:102D400010B553EC102B51EC100B03F033F841ECA1
:102D5000100B10BD10B553EC112B51EC100B03F000
:102D600029F841EC100B10BD9FED050B10B553EC8D
:102D7000102B51EC100B03F0C5F841EC100B10BDFB
:102D800000000000000000009FED050B10B553ECA3
:102D9000102B51EC100B03F00DFA41EC100B10BD91
:102DA000000000000000001000BF7047F0B52DEDDE
:102DB000028B83B006460F460025684601F00AF8EC
:102DC000002447E056F8241057F82420881A0028D9
:102DD00001DB014600E0414200EE101AB8EEC00AE5
:102DE000DFED200A80EE208A684600EB840090ED3B
:102DF000000AB5EEC00AF1EE10FA18D0684600EBF2
:102E00008400D0ED000A88EE200AF7EE000A70EE8A
:102E1000608AB0EEE80A1448D0ED090AB4EEE00A80
:102E2000F1EE10FA15DD0120A040054311E00E4837
:102E300090ED070AB4EEC80AF1EE10FA06DC90ED48
:102E4000080AB4EEC80AF1EE10FA02D20120A0403E
:102E50000543641C032CB5DB284603B0BDEC028B94
:102E6000F0BD0000000080475468000810B541EC38
:102E7000100BFFF785FC51EC100B10BD00B58BB0AB
:102E800001210220FEF726FD01214806FEF732FD52
:102E90004FF44070099002208DF8280000208DF832
:102EA0002A0003208DF8290001208DF82B0009A9A4
:102EB0002C48FEF7A1F9092208212A48FEF7E4F977
:102EC000092211462748FEF7DFF900208DF81E0081
:102ED0008DF81F008DF8200001208DF821000020C2
:102EE0008DF822008DF823008DF81A008DF81B0054
:102EF00005208DF81C0006208DF81D000320ADF87C
:102F0000180006A91848FDF7D4FD00208DF812001E
:102F10008DF8130001208DF814000020ADF8080092
:102F2000ADF80A00ADF80C00ADF80E00ADF81000D9
:102F300001208DF8150002A8FDF79EFC0122022158
:102F40000948FDF7ADFD14208DF8040001208DF82F
:102F500005008DF806008DF8070001A8FEF71EFC9D
:102F60000BB000BD00040240006400402DE9F041B8
:102F70000446E07800F0C006E07800F03F05607895
:102F800000F0010098B1EF102846E91705EB5171E8
:102F9000C910A5EBC101491C01F0FF080B480068EE
:102FA00020B10A48414602683846904700BF607821
:102FB00000F0080030B10548406818B1B011034A6C
:102FC000516888470020BDE8F08100006C010020B6
:102FD00010B504466FF00400FEF70EFFE11704EB96
:102FE0005171C1F3C701074A11701046007800EB18
:102FF0004001C1EBC0104FF6FF7101EAC000024969
:10300000088010BD420000204400002070B5044636
:103010004FF4077094FBF0F0C6B24FF4077094FBC6
:10302000F0F100FB114085B205E04FF4077000F0AD
:103030002FF8701EC6B2002EF7D115B1284600F049
:1030400027F870BD0146114A12784A434FF0E02339
:103050005A6100229A611A46126942F001021A610D
:1030600000BF4FF0E022106900F001021AB100F435
:103070008032002AF5D04FF0E022126922F00102DE
:103080004FF0E0231A6100229A617047420000204D
:103090000146114A12884A434FF0E0235A61002248
:1030A0009A611A46126942F001021A6100BF4FF09C
:1030B000E022106900F001021AB100F48032002A07
:1030C000F5D04FF0E022126922F001024FF0E02328
:1030D0001A6100229A6170474400002038B5044606
:1030E00064B120208DF8000028208DF801003020E8
:1030F0008DF8020038208DF8030004E0A32204219B
:103100006846FDF783F96A46042140F69E2002F0E6
:10311000C1FA01F0B1FE38BD3EB5044602208DF87B
:103120000000CA208DF80100E3208DF8020009207C
:103130008DF803006A460421682002F0ABFAA32050
:103140008DF8000004F0400048B1C0208DF8010067
:10315000C8208DF80200C2208DF8030006E0A320ED
:103160008DF801008DF802008DF8030004F4C070A2
:1031700048B1C4208DF80400CC208DF80500C6208D
:103180008DF8060006E0A3208DF804008DF80500F8
:103190008DF80600A3208DF807008DF808008DF843
:1031A00009006A460A2140F6A72002F073FA04F0EB
:1031B000030018B120208DF8000002E0D8208DF81F
:1031C00000006A46012140F6B62002F063FA04F0DE
:1031D000200018B1012000F0ADF802E0002000F05E
:1031E000A9F804F4C07008B304F4807060B1B22090
:1031F0008DF800008B208DF80100B6208DF80200BC
:103200009B208DF803000BE0B0208DF8000080209B
:103210008DF80100B4208DF8020090208DF8030095
:103220006A46042140F6A22002F034FA04F00100BC
:1032300020B3F8208DF800006A4601214FF40B609E
:1032400002F028FAFA21072000F02CFC072000F0F9
:10325000F3FB012000F013FC642000F003FD4FF4A9
:10326000FA7000F012FDC821304800F0A3FB2820BE
:1032700000F0BCFB0A2000F0CCFB08E0D8208DF861
:1032800000006A4601214FF40B6002F003FA04F0DB
:10329000020018B1D9208DF8000002E0D8208DF886
:1032A00000006A46012140F23D7002F0F3F904F09B
:1032B000040018B1012000F069F802E0002000F0DD
:1032C00065F804F0100018B10120FFF707FF02E0D5
:1032D0000020FFF703FF44F008001549488101F082
:1032E000CBFD00201249887304F0400018B1084655
:1032F000807B801D887304F4C07020B10C48807BF3
:10330000801D0B49887304F0140020B10848807BAD
:1033100010300749887304F0030020B10448807B13
:10332000001D0349887300203EBD000009E3CA0266
:103330006C0100203EB504466CB10EA1D1E900201D
:103340008968CDE9002002916A4609214FF497600F
:1033500002F0A0F93EBD0AA2D2E900109268CDE9C0
:10336000010200916A4609214FF4976002F092F938
:10337000F0E70000B8AAB38DB4980D355D000000E9
:10338000B8AAAAAAB088C3C5C700000038B50446C9
:1033900064B1C0208DF80000C2208DF80100C42067
:1033A0008DF80200C6208DF8030004E08B22042172
:1033B0006846FDF72BF86A46042140F6982002F093
:1033C00069F901F059FD38BD10B5C8234FF480628A
:1033D000024940F6F63001F0E3FB10BD7C680008BE
:1033E0002DE9F04F8DB00746884615469946DDE930
:1033F000166B0024002030806B49887B5A4605A953
:1034000001F09AFC18B1601E0DB0BDE8F08F66485F
:10341000807A00F01400002867D09DF814000006A0
:103420009DF8151040EA01409DF8161040EA012071
:103430009DF81710084328609DF8180000069DF8B5
:10344000191040EA01409DF81A1040EA01209DF849
:103450001B10084368609DF81C0000069DF81D10B5
:1034600040EA01409DF81E1040EA01209DF81F101F
:103470000843A8609DF8200000069DF8211040EA4E
:1034800001409DF8221040EA01209DF823100843D6
:10349000E86004F11000C4B2286800140190686864
:1034A00000140290A86800140390E86800140490C7
:1034B00001984043029901FB0100039901FB0100BF
:1034C000049901FB010ABAF1706F02DBBAF1885F5F
:1034D00005DD01F0D1FC00203080401E94E7B6F9F4
:1034E000000040F48070308000BF2F48807A00F0E8
:1034F000400020B305A9601C085C095D40EA01207A
:1035000000B2A8F8000005A9E01C095C05AAA01CEF
:10351000105C41EA002000B2A8F8020005A9601D75
:10352000095C201D105C41EA002000B2A8F80400EC
:10353000A01DC4B2B6F9000040F0080030801A485F
:10354000408900F4C07008B305A9601C085C095DDF
:1035500040EA012000B2388005A9E01C095C05AAF8
:10356000A01C105C41EA002000B2788005A9601D13
:10357000095C201D105C41EA002000B2B880A01D4B
:10358000C4B2B6F9000040F0700030800648807A7E
:1035900000F0030018B105A90819FFF7E7FC484639
:1035A00002F0B8F800202FE76C01002070B588B059
:1035B000064601A801F040F9BDF804000021C90346
:1035C00041EA5045C4034448007A00F0030056F82D
:1035D000200005904048007A00F0040010B10598E2
:1035E000404205903C48007AC0F3C10056F82000E4
:1035F00006903948007A00F0200010B10698404249
:1036000006903548007AC0F3811056F820000790E4
:103610003148008900F4807010B10798404207904B
:103620000598C117A0FB042301FB043100FB051022
:10363000810041EA927005900698C117A0FB04230F
:1036400001FB043100FB0510810041EA92700690F5
:103650000798C117A0FB042301FB043100FB0510F0
:10366000810041EA927007900598000E8DF80800DD
:103670000598000C8DF809000598000A8DF80A00DD
:103680000598C0B28DF80B000698000E8DF80C005E
:103690000698000C8DF80D000698000A8DF80E00B3
:1036A0000698C0B28DF80F000798000E8DF8100034
:1036B0000798000C8DF811000798000A8DF8120089
:1036C0000798C0B28DF8130002AA0C214FF42570A0
:1036D00001F0E0FF08B070BD6C01002030B585B08E
:1036E000044616A207CA02AB07C3C82C03DD4FF07D
:1036F000FF3005B030BDC82090FBF4F0401E85B20D
:10370000280A8DF80000E8B28DF801006A4602210F
:1037100040F2162001F0BEFF10B14FF0FF30E8E795
:1037200002AA0C2140F6C12001F0B4FF10B14FF005
:10373000FF30DEE7044884810020DAE7FEF2ABC404
:10374000AAF1DFDFBBAFDFDF6C0100201FB504464D
:103750004848007A00F0030054F8200001904548E2
:10376000007A00F0040010B10198404201904148F5
:10377000007AC0F3C10054F8200002903D48007A5E
:1037800000F0200010B10298404202903948007ABF
:10379000C0F3811054F8200003903648008900F4EB
:1037A000807010B10398404203903349019880FB28
:1037B0000101800F40EA810001902F49029880FBAF
:1037C0000110820042EA917002902B49039880FB1D
:1037D0000110820042EA917003900198000E8DF86A
:1037E00000000198000C8DF801000198000A8DF886
:1037F00002000198C0B28DF803006A4604214FF41C
:10380000747001F047FF18B14FF0FF3004B010BDE5
:103810000298000E8DF800000298000C8DF801004F
:103820000298000A8DF802000298C0B28DF80300D9
:103830006A4604214FF4757001F02CFF10B14FF06F
:10384000FF30E3E70398000E8DF800000398000CAA
:103850008DF801000398000A8DF802000398C0B2A9
:103860008DF803006A4604214FF4767001F012FFD0
:10387000CCE700006C01002009E3CA0210B586B055
:10388000044647A00068039046A00068029046A046
:103890000068019045A00068009004F0030003A9AF
:1038A000085C8DF8140003A8C4F3C101405C8DF8D6
:1038B000150003A8C4F38111405C8DF8160004F0D4
:1038C000030002A9085C8DF8100002A8C4F3C1012E
:1038D000405C8DF8110002A8C4F38111405C8DF8A2
:1038E000120005AA032140F2264001F0D3FE18B1D0
:1038F0004FF0FF3006B010BD04AA032140F22A4069
:1039000001F0C8FE10B14FF0FF30F3E701980590C9
:103910000098049004F0040058B19DF8140040F0A1
:1039200001008DF814009DF8100040F001008DF8A2
:10393000100004F0200058B19DF8150040F001007F
:103940008DF815009DF8110040F001008DF8110070
:1039500004F4807058B19DF8160040F001008DF815
:1039600016009DF8120040F001008DF8120005AA23
:1039700003214FF4886001F08DFE10B14FF0FF304D
:10398000B8E704AA032140F2314001F083FE10B1F0
:103990004FF0FF30AEE7064804810020AAE70000A0
:1039A0004CCD6C000CC92C003656760026466600BD
:1039B0006C010020F8B505460E464FF47A7095FB71
:1039C000F0F000FB06F4200E8DF80000200C8DF8BE
:1039D0000100200A8DF80200E0B28DF803006A466B
:1039E00004214FF4AE7001F055FEF8BD38B5044621
:1039F000052094FBF0F084B220128DF80000E0B2B4
:103A00008DF801006A4602214FF4AD7001F042FECC
:103A100038BD38B50446052094FBF0F084B220127E
:103A20008DF80000E0B28DF801006A4602214FF4E3
:103A3000AC7001F02FFE38BD38B504460020009070
:103A400004F0010020B19DF8000040F0300000902B
:103A500004F0020020B19DF8000040F00C0000903E
:103A600004F0040020B19DF8000040F00300009035
:103A70006A4601214FF4A47001F00CFE38BD38B540
:103A80000446012C01DA012402E0042C00DD0424A8
:103A9000601EC0B200906A46012140F24F1001F052
:103AA000F9FD38BDF0B52DED028B83B006460F460B
:103AB00006F0070010B1B7F5C86F05DD4FF0FF3015
:103AC00003B0BDEC028BF0BD00EE107AB8EE400AF8
:103AD000DFED5B0A80EE208A01A800F087FE9DF8EA
:103AE0000400022806D0042817D0082828D010285F
:103AF0004CD138E09FED530A28EE000ABCEEC00A14
:103B000010EE100A84B29FED500A28EE000ABCEEB7
:103B1000C00A10EE100A85B23BE09FED4C0A28EE79
:103B2000000ABCEEC00A10EE100A84B29FED480AEB
:103B300028EE000ABCEEC00A10EE100A85B228E09A
:103B40009FED440A28EE000ABCEEC00A10EE100AEF
:103B500084B29FED410A28EE000ABCEEC00A10EEC6
:103B6000100A85B215E09FED3D0A28EE000ABCEE72
:103B7000C00A10EE100A84B29FED390A28EE000A3E
:103B8000BCEEC00A10EE100A85B202E04FF0FF3022
:103B900096E700BF20128DF80800E0B28DF809000A
:103BA00028128DF80A00E8B28DF80B0006F001002B
:103BB000A0B102AA02214FF4EA7001F06BFD10B12E
:103BC0004FF0FF307CE70DF10A0202214FF49270B2
:103BD00001F060FD10B14FF0FF3071E706F0020018
:103BE000A0B102AA02214FF4EC7001F053FD10B114
:103BF0004FF0FF3064E70DF10A0202214FF4947098
:103C000001F048FD10B14FF0FF3059E706F0040015
:103C1000A0B102AA02214FF4EE7001F03BFD10B1F9
:103C20004FF0FF304CE70DF10A0202214FF496707D
:103C300001F030FD10B14FF0FF3041E700203FE7C9
:103C40000000484300008046000040460000004657
:103C50000000C045000080450000404500000045D0
:103C60000000C04438B50446052094FBF0F085B24E
:103C700028128DF80000E8B28DF801006A46022192
:103C80004FF4EF7001F006FD38BD38B5044605204D
:103C900094FBF0F085B228128DF80000E8B28DF8A0
:103CA00001006A4602214FF4ED7001F0F3FC38BDCB
:103CB00000B585B001210720FDF70CFE4FF4004050
:103CC000009000208DF8040003208DF805000120ED
:103CD0008DF8070069462F48FDF78EFA0121880309
:103CE000FDF718FE0F210120FDF7F0FF4FF4004013
:103CF000029000208DF80C000C208DF80D000120A2
:103D00008DF80E0002A8FDF72DFA28208DF810007E
:103D100001208DF811008DF812008DF8130004A811
:103D2000FDF73CFD8820009000208DF804006946D6
:103D30001948FDF761FA2020009069461748FDF701
:103D40005BFA03210020FDF7C1FF07210020FDF7EA
:103D5000BDFF05210220FDF7B9FFA8200290002039
:103D60008DF80C000C208DF80D0001208DF80E0050
:103D700002A8FDF7F7F909208DF8100004A8FDF757
:103D80000DFD17208DF8100004A8FDF707FD05B004
:103D900000BD000000040240000002400008024094
:103DA00082B0CDE9000121F0004001909DED000BB3
:103DB00002B051EC100B704700BF054A128802F0A8
:103DC0004002002AF9D0C2B2014B9A80704700002D
:103DD000001001407CB505462E494968087801ABC2
:103DE00004220D2100F066FB08B107207CBD9DF880
:103DF0000700C0F301109DF8041001F0E00140EA53
:103E0000E1008DF800009DF80700C0F381009DF8E7
:103E1000051001F0E00140EAE1008DF801009DF895
:103E2000070000F003009DF8061001F0E00140EAF1
:103E3000E1008DF80200002427E01DF8040030B9ED
:103E40009FED150A05EB840080ED000A1BE09FED55
:103E5000130A05EB840080ED000A0BE005EB8400FB
:103E600090ED000ADFED0E0A20EE200A05EB84003B
:103E700080ED000A1DF80400401EC0B20DF80400D9
:103E80000028EBD100BF601CC4B2032CD5DB00209E
:103E9000ACE7000050000020000000007B14AE3EA4
:103EA0001D5A843F2DE9F04F87B005460C469146D8
:103EB00001208DF8100000208DF81100FE4A1268D4
:103EC000917CFD4A5268107804AB022200F02DFB71
:103ED00020B14FF0FF3007B0BDE8F08FC820FFF7EA
:103EE00095F800208DF81000F34A1268D17BF24A51
:103EF0005268107804AB012200F017FB10B14FF0AC
:103F0000FF30E8E7EC4A12685179EB4A52681078C2
:103F100004AB012200F009FB10B14FF0FF30DAE7EB
:103F2000E54A1268917CE44A5268107804AB012299
:103F300000F0FBFA10B14FF0FF30CCE7DE4A126818
:103F4000D17DDD4A5268107804AB012200F0EDFA11
:103F500010B14FF0FF30BEE7D74A12681179D64A48
:103F60005268107804AB012200F0DFFA10B14FF074
:103F7000FF30B0E70C208DF81000CF4A126811799D
:103F8000CD4A5268107804AB012200F0CEFA10B18D
:103F90004FF0FF309FE70F20FFF738F8C648806AE0
:103FA000407A8DF81000C44A12689178C24A52686B
:103FB000107804AB012200F0B8FA10B14FF0FF30D6
:103FC00089E7BD48806A007A8DF81000BA4A126805
:103FD0005178B94A5268107804AB012200F0A5FA72
:103FE00010B14FF0FF3076E7B9F1000F07D0B248BB
:103FF000806A807A40F0E0008DF8100004E0AE485E
:10400000806A807A8DF81000AB4A12689179AA4ACA
:104010005268107804AB012200F087FA10B14FF01B
:10402000FF3058E7B9F1000F07D0A348806AC07A83
:1040300040F0E0008DF8100003E0A048C07A8DF851
:1040400010009D4A1268D1799B4A5268107804ABDF
:10405000012200F06AFA10B14FF0FF303BE7B9F1EE
:10406000000F02D0C820FEF7D1FF40208DF81000CD
:10407000914A12681179904A5268107804AB012273
:1040800000F053FA10B14FF0FF3024E778208DF89C
:104090001000894A12685179874A5268107804AB37
:1040A000012200F042FA10B14FF0FF3013E78349CC
:1040B0008889FEF7ABFF00208DF810007E4A126859
:1040C00051797D4A5268107804AB012200F02DFA34
:1040D00010B14FF0FF30FEE6774A1268917A764AC7
:1040E0005268107804AB022200F0E4F910B14FF0EE
:1040F000FF30F0E69DF811009DF8101040EA012B0A
:104100000C209BFBF0F0C6B20020A860686028601D
:10411000A06060602060824665E0674A1268D17ADC
:10412000654A5268107804AB0C2200F0C3F910B154
:104130004FF0FF30CFE69DF811009DF8101040EAD7
:10414000012000B2ADF808009DF813009DF8121090
:1041500040EA012000B2ADF80A009DF815009DF874
:10416000141040EA012000B2ADF80C00BDF90810AF
:10417000206808442060BDF90A1060680844606047
:10418000BDF90C10A0680844A0609DF817009DF8C8
:10419000161040EA012000B2ADF800009DF81900A9
:1041A0009DF8181040EA012000B2ADF802009DF819
:1041B0001B009DF81A1040EA012000B2ADF804007F
:1041C000BDF90010286808442860BDF9021068682D
:1041D00008446860BDF90410A8680844A8600AF1A2
:1041E000010000F0FF0AB24597DB3448D0F800C068
:1041F0002868C117090441EA1041070462460023F8
:104200003846FCF736F832460023CDE90201FCF7C8
:1042100030F828602948D0F800C06868C117090440
:1042200041EA10410704624600233846FCF721F8B2
:1042300032460023CDE90201FCF71BF868601F48F5
:10424000D0F800C0A868C117090441EA104107046A
:10425000624600233846FCF70CF832460023CDE9CD
:104260000201FCF706F8A8601448D0F804C02168E1
:10427000C817000440EA11480F046246002338467C
:104280004146FBF7F6FF32460023CDE90201FBF77A
:10429000F0FF20600948D0F804C06068C117090425
:1042A00041EA10410704624600233846FBF7E1FF6C
:1042B0003246002304E0000050000020546800084B
:1042C000CDE90201FBF7D5FF60601148D0F804C0CA
:1042D000A068C117090441EA10410704624600239F
:1042E0003846FBF7C6FF32460023CDE90201FBF753
:1042F000C0FFA060A068002804DDA068A0F58030A1
:10430000A06003E0A06800F58030A0600020E2E536
:10431000546800081CB501210720FDF7DBFA4AF2BA
:104320000800009001208DF8040000208DF80600A0
:1043300003208DF8050001208DF8070069460F481D
:10434000FCF75AFF0220009069460D48FCF754FF25
:104350004FF40050009069460A48FCF74DFF0120D9
:104360000949086000200949C1F8B40208490860F9
:10437000074930390860074908601CBD0008024041
:104380000000024000040240B4824042000041426A
:10439000BC02414284024042F0B52DED048B81B055
:1043A00006460F4600253E49496808786B460322B9
:1043B0000D2100F07FF820B1072001B0BDEC048B87
:1043C000F0BD9DF8000000F01F008DF800009DF882
:1043D000010000F01F008DF801009DF8020000F0C0
:1043E0001F008DF80200002455E056F8241057F8FD
:1043F0002420881A002801DB014600E0414200EE3B
:10440000101AB8EEC00ADFED270A80EE208A1DF8E8
:10441000040068B3244890ED000AB8EE400ADFEDCE
:10442000230A80EE801AF0EE418A05E09FED200A13
:1044300028EE800AF0EE408A1DF80400401EC0B24B
:104440000DF804000028F1D188EE280AF7EE000AE2
:1044500030EE609AB0EEC90A1348D0ED060AB4EE09
:10446000E00AF1EE10FA15DD0120A040054311E04D
:104470000D4890ED040AB4EEC80AF1EE10FA06DC1D
:1044800090ED050AB4EEC80AF1EE10FA02D201204E
:10449000A0400543641C032CA7DB28468DE70000E1
:1044A00050000020000080475468000800B04C45D0
:1044B00054E3853F2DE9F04106460F4614461D465C
:1044C000FDF704F810B90120BDE8F0817106080E6F
:1044D000FCF7CAFFFDF752F818B9FDF72BF80120D9
:1044E000F2E73846FCF7C0FFFDF748F8FCF7EEFFAF
:1044F000012101EB4601C8B2FCF7B6FFFDF73EF81B
:104500000DE0012C04D10020FCF778FF287003E0B7
:104510000120FCF773FF28706D1C601EC4B2002CD4
:10452000EFD1FDF707F80020CEE72DE9F041054671
:104530000E4617469846FCF7C9FF10B90120BDE8A2
:10454000F0816906080EFCF78FFFFDF717F818B920
:10455000FCF7F0FF0120F2E73046FCF785FFFDF79E
:104560000DF800240BE018F80400FCF77DFFFDF7C0
:1045700005F818B9FCF7DEFF0020E0E7641CBC4238
:10458000F1DBFCF7D7FF0020D9E7000010B54FF4AE
:10459000A060FDF73FF9A820FEF71AFDFFF7BAFE6D
:1045A00001F066F90A2001F029FB4FF4E13001F037
:1045B00059FB1420FEF72AFDFCF7D4FEFDF79DF809
:1045C000FCF766FCFFF774FB6420FEF71FFDFEF7A7
:1045D00055FC3220FEF71AFD00201EE0B0EE000A66
:1045E00000EBC0010E4A126802EB810181ED020A64
:1045F0009FED0C0A00EBC001094A126802EB810131
:1046000081ED030A9FED080A00EBC001044A12681D
:1046100002EB810181ED040A401C0428DEDB10BDA1
:10462000480000200AD7233CCDCCCC3D70B50546D0
:10463000284600F00FF80446E81C00F00BF844EAA6
:10464000C00084B2A81D00F005F844EA801084B2CE
:10465000204670BD014691F90020002A01DD0020AE
:104660001EE091F90020002A01DA042018E091F9F7
:104670000120002A01DD012012E091F90120002A29
:1046800001DA05200CE091F90220002A01DD022068
:1046900006E091F90220002A01DA062000E0072056
:1046A00070470000FFF772FF59E02D48007800B90D
:1046B00055E02C480068401C2A4908600020284921
:1046C000087001F029F82848006810B9002027492F
:1046D00008702648007830B1012812D002281FD077
:1046E00003283AD12BE0012021490860002021490C
:1046F000C1F8BC021E49283908601F49C1F884026C
:104700002BE000201A49086001201A49C1F8BC02B8
:1047100000201749283908601749C1F884021CE0B5
:104720000020134908601349C1F8BC020120104958
:104730002839086000201049C1F884020DE00020EB
:104740000B4908600B49C1F8BC02094928390860C7
:1047500001200949C1F8840200BF00BF00BFA4E7DF
:1047600018000020000000202C8240423800002069
:10477000B4024142000041420000404270B504468C
:10478000002624F00104184890F8240008B1002005
:1047900070BD1548807A10B94FF0FF30F8E7124825
:1047A000057C807A2040104908740846007CA042AD
:1047B00002D04FF0FF3600E0002614B90A48007D11
:1047C00018B1012001F09AF902E0002001F096F9F9
:1047D0003CB100F051FB20B1034805744FF0FF30AD
:1047E000D6E73046D4E700005000002001461148CB
:1047F000407A30B1012807D0022808D003280CD114
:1048000008E0022008700BE00420087008E008208F
:10481000087005E01020087002E04FF0FF3070478C
:1048200000BF0448C07C18B108784006000E08702C
:104830000020F4E75000002001461348407A30B1D0
:10484000012808D002280AD0032810D10BE04FF429
:10485000804008800EE041F69C7008800AE04FF42A
:104860008050088006E04FF40060088002E04FF0BE
:10487000FF30704700BF0448C07C10B1088840106A
:1048800008800020F5E700005000002001460248A3
:10489000007C0870002070475000002001460F483F
:1048A000007A30B1012807D0022809D003280FD19F
:1048B0000AE0FA2008800EE04FF4FA7008800AE05F
:1048C0004FF47A70088006E04FF4FA60088002E046
:1048D0000020088000BF00BF00207047500000206B
:1048E00001461248007A30B1012809D002280CD0C4
:1048F000032814D10EE09FED0E0A81ED000A11E0AD
:104900009FED0C0A81ED000A0CE09FED0B0A81ED92
:10491000000A07E09FED090A81ED000A02E04FF06E
:10492000FF30704700BF0020FBE700005000002070
:104930000000034300008342333303423333834197
:1049400001461248C07A082817D2DFE800F01704A1
:10495000070A0D101318BC20088013E0622008809D
:1049600010E02A2008800DE0142008800AE00A20C8
:10497000088007E00520088004E000BF00BF002099
:10498000088000BF00BF00207047000050000020DA
:104990000146064890F8240010B14FF0FF307047F0
:1049A0000248C08908800020F9E70000500000207C
:1049B0001CB580208DF80000654A1268917C644A1D
:1049C000526810786B460122FFF7AFFD10B14FF02F
:1049D000FF301CBD6420FEF719FB00208DF800009D
:1049E0005B4A1268917C5A4A526810786B460122E1
:1049F000FFF79BFD10B14FF0FF30EAE7544A126811
:104A0000917D534A526810786B460622FFF752FD9B
:104A100010B14FF0FF30DCE79DF80500C007400FF4
:104A20009DF8031001F0010140EA41009DF80110DA
:104A300001F0010140EA010494B1012C03D10121EC
:104A40004348C17431E0022C03D100214048C174B5
:104A50002BE021463FA0FBF731FC4FF0FF30B8E7D9
:104A60003B4A1268D1783A4A526810786B46012264
:104A7000FFF720FD10B14FF0FF30AAE79DF80000CE
:104A800000F00F042CB93D48FBF718FC4FF0FF3045
:104A90009FE7042C06D13AA0FBF710FC01212C481B
:104AA000C17402E000212A48C174FF2128488172A4
:104AB000FF2027490872FF2125484172C1724FF635
:104AC000FF71C181FF21017481740121017380F89C
:104AD0002210002180F82310417501751630016005
:104AE00041608160163880F8241080F82510C18458
:104AF0004FF4FA6000F05CFC10B14FF0FF3068E753
:104B0000022000F025FB10B14FF0FF3061E72A20B2
:104B100000F0C8FC10B14FF0FF305AE7322000F02F
:104B200003FD10B14FF0FF3053E70020FFF726FEE2
:104B300010B14FF0FF304CE7002000F04BFB10B1FC
:104B40004FF0FF3045E7002000F03CFD002040E73B
:104B500050000020556E737570706F72746564201C
:104B6000736F6674776172652070726F64756374B9
:104B7000207265762025642E0A0000006875000802
:104B800048616C662073656E7369746976697479BF
:104B9000207061727420666F756E642E0D0A0000BD
:104BA0002DE9F04385B005460E46904699462948C2
:104BB00090F8250020B14FF0FF3005B0BDE8F0833C
:104BC00016B94FF0FF30F8E7002423E0281B102827
:104BD00001DD102000E0281B87B23219394620463B
:104BE00000F058FD10B14FF0FF30E6E701AA39465A
:104BF000204600F001F910B14FF0FF30DDE7301929
:104C00003A4601A9FBF7D6FB10B16FF00100D4E7DB
:104C1000E01984B2AC42D9DB4FEA28208DF80000BD
:104C200008F0FF008DF801000A4A1268917E094AD7
:104C3000526810786B460222FFF777FC10B14FF0F4
:104C4000FF30BAE70121034880F82510A0F826902C
:104C50000020B2E75000002038B50446282C02DDC1
:104C60004FF0FF3038BDDCB9002000F0E5FB00203C
:104C70008DF8000007208DF801002E4A1268917C03
:104C80002C4A526810786B460222FFF74EFC10B196
:104C90004FF0FF30E6E70021264801750020E1E7EC
:104CA000012000F0C9FB20208DF80000012C06D166
:104CB00000208DF80100052000F0F4FB17E0052C22
:104CC00006DC01208DF80100052000F0EBFB0EE072
:104CD000142C06DC02208DF801000A2000F0E2FB13
:104CE00005E003208DF80100142000F0DBFB9DF8A7
:104CF0000100072101EB8010C0B28DF801000D4AC0
:104D00001268917C0B4A526810786B460222FFF7BA
:104D10000CFC10B14FF0FF30A4E708210548817268
:104D200000210173012101750020FFF727FD0020FC
:104D300098E7000050000020F8B504460F461646DC
:104D40002C4890F8240010B94FF0FF30F8BD2948E6
:104D5000807A10B94FF0FF30F8E7264A1268917A4E
:104D6000244A526810786B460222FFF7A3FB10B169
:104D70004FF0FF30EAE79DF801009DF8001040EA8F
:104D80000125A54203DA00203070401EDEE71948F5
:104D900040684088B5EB600F17DD164A1268517CF9
:104DA000144A526810786B460122FFF783FB10B15A
:104DB0004FF0FF30CAE79DF8000000F0100020B16E
:104DC00000F05AF86FF00100C0E7E2B2094B1B682F
:104DD000D97A084B5B6818783B46FFF76BFB10B13C
:104DE0004FF0FF30B2E795FBF4F0401E307000202A
:104DF000ACE7000050000020F8B504460D4616460A
:104E000016B94FF0FF30F8BD1A48807A10B94FF04C
:104E1000FF30F8E720128DF80000E0B28DF80100B5
:104E20009DF801002844134949684989884202DDF8
:104E30004FF0FF30E7E70F4A1268117E0D4A5268C3
:104E400010786B460222FFF770FB10B14FF0FF3075
:104E5000D9E7EAB2074B1B68597D064B5B681878A7
:104E60003346FFF727FB10B14FF0FF30CBE70020B0
:104E7000C9E700005000002008B56D48807A10B9DD
:104E80004FF0FF3008BD00200090694A1268D17BC6
:104E9000674A526810786B460122FFF746FB10B153
:104EA0004FF0FF30EEE7624A12685179604A52686B
:104EB00010786B460122FFF738FB10B14FF0FF303E
:104EC000E0E75B4A12681179594A526810786B46DC
:104ED0000122FFF72AFB10B14FF0FF30D2E7544810
:104EE00090F82400002850D00C200090504A1268FE
:104EF00011794F4A526810786B460122FFF715FB73
:104F000010B14FF0FF30BDE7C02000904848807AD4
:104F100000F0010020B19DF8000040F0200000905A
:104F2000434A12681179424A526810786B4601224E
:104F3000FFF7FBFA10B14FF0FF30A3E73C48407C8D
:104F400010B10220009001E000200090384A126861
:104F5000D17B374A526810786B460122FFF7E5FA99
:104F600010B14FF0FF308DE700200090304A1268FA
:104F700051792F4A526810786B460122FFF7D5FA13
:104F8000002852D04FF0FF307CE704200090284AE0
:104F900012681179264A526810786B460122FFF791
:104FA000C4FA10B14FF0FF306CE72148807C20B983
:104FB0001F48807A00F0010010B94020009001E005
:104FC000602000901A4A12681179194A52681078C4
:104FD0006B460122FFF7A9FA10B14FF0FF3051E7FD
:104FE0001348407C10B10120009001E000200090A7
:104FF0000F4A1268D17B0E4A526810786B46012224
:10500000FFF793FA10B14FF0FF303BE7084A126800
:105010005179074A52681078054B10330122FFF787
:1050200084FA10B14FF0FF302CE700202AE700008F
:10503000500000202DE9F04F8DB083460F4602202E
:105040000C90424890F8240020B1002000F068F94C
:10505000012600E0002603A8FFF720FC05A8FFF7C3
:10506000C5FB01A8FFF76CFC02A8FFF791FC3748CD
:1050700090F80AA004A8FFF709FC002407E000222A
:1050800039465846FEF70EFF00B902E0641C022CB8
:10509000F5DB00BF022C01D1002528E0002407E049
:1050A000012206A909A8FEF7FDFE00B902E0641C72
:1050B000022CF5DB00BF022C01D1002517E006A968
:1050C0003846FDF773FE00F0FF0809A95846FFF7C0
:1050D00063F900F0FF090025B9F1000F01D145F097
:1050E0000105B8F1000F01D145F0020500BFFF2016
:1050F00016490872FF2115484172C1724FF6FF71BF
:10510000C181FF218172017401210173BDF80C007E
:1051100000F04EF99DF8140000F01AF8BDF80400F4
:1051200000F0C0F9BDF8080000F0FEF9504600F0AC
:1051300049FA9DF81000FFF721FB16B1012000F09D
:10514000EFF828460DB0BDE8F08F000050000020B9
:1051500038B504461E48807A10B94FF0FF3038BD8C
:10516000022C06D0042C07D0082C08D0102C0CD10F
:1051700008E0002000900BE00820009008E01020DC
:10518000009005E01820009002E04FF0FF30E6E7C5
:1051900000BF0F48407A9DF80010B0EBE10F01D13D
:1051A0000020DCE70A4A1268D179094A526810786F
:1051B0006B460122FFF7B9F910B14FF0FF30CEE78F
:1051C0009DF80000C110024841720020C7E70000AE
:1051D0005000002038B504465048807CA04201D1E0
:1051E000002038BD002C46D04C4A126811794B4A39
:1051F000526810786B460122FFF75CF910B14FF04E
:10520000FF30EEE79DF8000020F020000090434AB8
:1052100012681179414A526810786B460122FFF7F3
:1052200084F910B14FF0FF30DBE70320FDF7EEFE0D
:1052300002200090394890F8220020B19DF800002B
:1052400040F080000090354890F8230020B19DF890
:10525000000040F030000090304A1268117D2F4A63
:10526000526810786B460122FFF75FF9002851D091
:105270004FF0FF30B5E7294A12681179274A526882
:1052800010786B460122FFF715F910B14FF0FF308F
:10529000A7E72248807A00F0010028B19DF80000BD
:1052A00040F02000009004E09DF8000020F0200075
:1052B00000901A4A12681179184A526810786B46A1
:1052C0000122FFF732F910B14FF0FF3089E70320D8
:1052D000FDF79CFE114890F8220010B1802000904C
:1052E00001E0002000900D4890F8230020B19DF8C7
:1052F000000040F030000090084A1268117D074A13
:10530000526810786B460122FFF70FF910B14FF089
:10531000FF3066E701488474002062E750000020F7
:1053200038B50446214890F82400A04201D100205D
:1053300038BD24B31D4890F8250010B94FF0FF3058
:10534000F6E7002000F0DAFB0020FFF743FF1749E3
:10535000C88C00F0E9F800200090144949680878EA
:105360006B4601222321FFF7E0F801210F4880F866
:105370002410012000F0C2FBFFF77EFD13E00020A7
:1053800000F0BCFB0948007C009008494968087897
:105390006B4601222321FFF7C8F80021034880F85B
:1053A0002410FFF769FD0020C2E700005000002034
:1053B00038B504461F48807A10B94FF0FF3038BD29
:1053C000FA2C09D0B4F5FA7F09D0B4F57A7F09D068
:1053D000B4F5FA6F0CD108E0002000900BE0082033
:1053E000009008E01020009005E01820009002E0F6
:1053F0004FF0FF30E3E700BF0E48007A9DF8001041
:10540000B0EBE10F01D10020D9E70A4A1268917987
:10541000084A526810786B460122FFF786F810B1EF
:105420004FF0FF30CBE79DF80000C0100149087233
:105430000020C4E75000002038B50446184890F812
:105440002300A04201D1002038BD14B130200090CB
:1054500001E0002000901248807C20B19DF80000FF
:1054600040F0020000900E4890F8220020B19DF814
:10547000000040F080000090094A1268117D084A3F
:10548000526810786B460122FFF74FF810B14FF0C9
:10549000FF30D9E7024880F823400020D4E700001D
:1054A0005000002038B504461E48807A10B94FF0ED
:1054B000FF3038BDBC2C02DB0120009015E0622CCF
:1054C00002DB0220009010E02A2C02DB0320009077
:1054D0000BE0142C02DB0420009006E00A2C02DB17
:1054E0000520009001E0062000900E48C07A9DF84B
:1054F0000010884201D10020DBE70A4A1268917847
:10550000084A526810786B460122FFF70EF810B176
:105510004FF0FF30CDE79DF800100248C172002027
:10552000C7E700005000002038B504462448807AC0
:1055300010B94FF0FF3038BD214890F8240010B169
:105540004FF0FF30F7E71E48007D50B134B1282CF2
:1055500004DCE0B2FFF780FB0020ECE70020FFF75F
:105560007BFB042C01DA042404E0B4F57A7F01DD2E
:105570004FF47A744FF47A7090FBF4F0401EC0B28E
:1055800000900F4A126851780D4A526810786B46A5
:105590000122FEF7CAFF10B14FF0FF30CBE79DF8B4
:1055A0000000401C4FF47A7191FBF0F081B2044886
:1055B000C1810146C9894810FFF774FF0020BAE78E
:1055C0005000002038B5044604F0700010B10120EE
:1055D000009005E014B10020009001E04020009010
:1055E0002B4A1268917C2A4A526810786B46012235
:1055F000FEF79BFF20B1002125488172481E38BD6F
:105600009DF8000020F04001214801730020009027
:1056100004F0400020B99DF8000040F00400009024
:1056200004F0200020B99DF8000040F00200009036
:1056300004F0100020B99DF8000040F00100009037
:1056400004F0080020B99DF8000040F038000090F8
:105650000F4A1268D17C0E4A526810786B460122BC
:10566000FEF763FF20B1002109488172481EC6E79A
:1056700024B1082C02D00020FFF7DEFE044884721B
:10568000002101753220FDF7C1FC0020B7E70000C2
:1056900050000020F8B504460D46164616B94FF0E6
:1056A000FF30F8BD1A48807A10B94FF0FF30F8E7A4
:1056B00020128DF80000E0B28DF801009DF8010085
:1056C0002844134949684989884202DD4FF0FF3078
:1056D000E7E70F4A1268117E0D4A526810786B4650
:1056E0000222FEF722FF10B14FF0FF30D9E7EAB2F5
:1056F000074B1B68597D064B5B6818783346FEF7ED
:1057000014FF10B14FF0FF30CBE70020C9E70000D5
:10571000500000207047000010B500200AE04F49FB
:1057200031F8101000EBC0024D4B1B6803EB8202F6
:10573000D183401C0428F2DB01204A490870002074
:10574000494908704748007809780844474909885A
:1057500010FB01F0434909784942434A1278114449
:10576000424A528811FB020040498988401A00B21F
:105770003B49096888833B4800783B490978401ACF
:105780003A49098810FB01F136480078364A127808
:105790001044364A528810FB021034498988401A56
:1057A00001B22F480068A0F840102E48007840420F
:1057B0002D490978401A2D49098810FB01F0294923
:1057C0000978294A1278891A284A528811FB02005E
:1057D00026498988401A01B221480068A0F864105F
:1057E0002048007840422049097808441F49098828
:1057F00010FB01F11B48007840421B4A1278801AC6
:105800001A4A528810FB021018498988401A01B2BE
:1058100013480068A0F8881011480068FCF704F8E5
:105820000F4800682430FBF7FFFF0D480068483040
:10583000FBF7FAFF0A4800686C30FBF7F5FF0848F1
:10584000006800F0E9F8094BB3F90420B3F902103D
:10585000B3F9000000F0BEF810BD00003A000020CF
:10586000480000204D0000204E0000206001002074
:1058700000B58BB001210220FCF73CF80121042087
:10588000FCF728F8022207212048FBF7FDFC8020C6
:10589000099002208DF8280003208DF829000020AF
:1058A0008DF82A0001208DF82B0009A91748FBF775
:1058B000A3FC40F24730ADF818000020ADF81A0004
:1058C00040F2CF7007900020ADF8200006A91048E4
:1058D000FCF7FAFB7020ADF804000120ADF80600DB
:1058E0000020ADF8100001A90948FCF78BFB082146
:1058F0000748FCF7D9FB01210548FCF741FB0121D2
:105900000348FCF74CFB0BB000BD00000008024050
:105910000004004010B588B002A905A8FFF78AFB73
:105920000446072C42D101A8FEF7DAFF9DED050AD7
:10593000B8EEC00ADDED010A20EE200ABDEEC00A75
:105940008DED050A9DED060AB8EEC00ADDED010AEF
:1059500020EE200ABDEEC00A8DED060A9DED070A75
:10596000B8EEC00ADDED010A20EE200ABDEEC00A45
:105970008DED070A05A8FDF7E9FE6846FEF75CFF16
:10598000BDF80010029848430290BDF8001003983B
:1059900048430390BDF8001004984843049002A8BF
:1059A000FDF704FE02A0FAF789FC00BF08B010BDA5
:1059B00073657474696E67206269617320737563BF
:1059C00063657366756C6C79202E2E2E2E2E2E0D2F
:1059D0000A0000007CB506460C46154606200D4917
:1059E0000870002000900190300A8DF80000F0B29D
:1059F0008DF80100200A8DF80200E0B28DF8030056
:105A0000280A8DF80400E8B28DF80500684600F019
:105A10004DF87CBD4600002070B586B004460025D8
:105A20004FF400700190002002908DF80C008DF86A
:105A30000D0008208DF80E00208C000A8DF80F0054
:105A400094F820108DF810104420005B010A8DF8A6
:105A5000111094F844108DF812106820005B010AB0
:105A60008DF8131094F868108DF814108C20005BDA
:105A7000010A8DF8151094F88C108DF8161001A9F4
:105A80000948FBF718F9064600BF01E0681C85B21B
:105A900031460548FBF7A2F918B940F6FF70854278
:105AA000F4DB06B070BD00000064004070B5054630
:105AB0001148007800F22916882000F02DF9A12065
:105AC00000F02AF90C48007800F026F9002400BF05
:105AD00009480078844200D108E0285D00F01CF9F4
